{
  "_format": "hh-sol-artifact-1",
  "contractName": "VidVerse",
  "sourceName": "contracts/VidVerse.sol",
  "abi": [
    {
      "inputs": [],
      "stateMutability": "nonpayable",
      "type": "constructor"
    },
    {
      "inputs": [
        {
          "internalType": "address",
          "name": "sender",
          "type": "address"
        },
        {
          "internalType": "uint256",
          "name": "tokenId",
          "type": "uint256"
        },
        {
          "internalType": "address",
          "name": "owner",
          "type": "address"
        }
      ],
      "name": "ERC721IncorrectOwner",
      "type": "error"
    },
    {
      "inputs": [
        {
          "internalType": "address",
          "name": "operator",
          "type": "address"
        },
        {
          "internalType": "uint256",
          "name": "tokenId",
          "type": "uint256"
        }
      ],
      "name": "ERC721InsufficientApproval",
      "type": "error"
    },
    {
      "inputs": [
        {
          "internalType": "address",
          "name": "approver",
          "type": "address"
        }
      ],
      "name": "ERC721InvalidApprover",
      "type": "error"
    },
    {
      "inputs": [
        {
          "internalType": "address",
          "name": "operator",
          "type": "address"
        }
      ],
      "name": "ERC721InvalidOperator",
      "type": "error"
    },
    {
      "inputs": [
        {
          "internalType": "address",
          "name": "owner",
          "type": "address"
        }
      ],
      "name": "ERC721InvalidOwner",
      "type": "error"
    },
    {
      "inputs": [
        {
          "internalType": "address",
          "name": "receiver",
          "type": "address"
        }
      ],
      "name": "ERC721InvalidReceiver",
      "type": "error"
    },
    {
      "inputs": [
        {
          "internalType": "address",
          "name": "sender",
          "type": "address"
        }
      ],
      "name": "ERC721InvalidSender",
      "type": "error"
    },
    {
      "inputs": [
        {
          "internalType": "uint256",
          "name": "tokenId",
          "type": "uint256"
        }
      ],
      "name": "ERC721NonexistentToken",
      "type": "error"
    },
    {
      "anonymous": false,
      "inputs": [
        {
          "indexed": true,
          "internalType": "address",
          "name": "owner",
          "type": "address"
        },
        {
          "indexed": true,
          "internalType": "address",
          "name": "approved",
          "type": "address"
        },
        {
          "indexed": true,
          "internalType": "uint256",
          "name": "tokenId",
          "type": "uint256"
        }
      ],
      "name": "Approval",
      "type": "event"
    },
    {
      "anonymous": false,
      "inputs": [
        {
          "indexed": true,
          "internalType": "address",
          "name": "owner",
          "type": "address"
        },
        {
          "indexed": true,
          "internalType": "address",
          "name": "operator",
          "type": "address"
        },
        {
          "indexed": false,
          "internalType": "bool",
          "name": "approved",
          "type": "bool"
        }
      ],
      "name": "ApprovalForAll",
      "type": "event"
    },
    {
      "anonymous": false,
      "inputs": [
        {
          "indexed": true,
          "internalType": "address",
          "name": "from",
          "type": "address"
        },
        {
          "indexed": true,
          "internalType": "address",
          "name": "to",
          "type": "address"
        },
        {
          "indexed": true,
          "internalType": "uint256",
          "name": "tokenId",
          "type": "uint256"
        }
      ],
      "name": "Transfer",
      "type": "event"
    },
    {
      "anonymous": false,
      "inputs": [
        {
          "indexed": true,
          "internalType": "uint256",
          "name": "id",
          "type": "uint256"
        },
        {
          "indexed": false,
          "internalType": "string",
          "name": "title",
          "type": "string"
        },
        {
          "indexed": false,
          "internalType": "string",
          "name": "description",
          "type": "string"
        },
        {
          "indexed": false,
          "internalType": "string",
          "name": "category",
          "type": "string"
        },
        {
          "indexed": false,
          "internalType": "string",
          "name": "location",
          "type": "string"
        },
        {
          "indexed": false,
          "internalType": "string",
          "name": "thumbnailHash",
          "type": "string"
        },
        {
          "indexed": false,
          "internalType": "string",
          "name": "videoHash",
          "type": "string"
        },
        {
          "indexed": true,
          "internalType": "address",
          "name": "owner",
          "type": "address"
        },
        {
          "indexed": true,
          "internalType": "address",
          "name": "eoa",
          "type": "address"
        }
      ],
      "name": "VideoAdded",
      "type": "event"
    },
    {
      "anonymous": false,
      "inputs": [
        {
          "indexed": true,
          "internalType": "uint256",
          "name": "id",
          "type": "uint256"
        },
        {
          "indexed": false,
          "internalType": "string",
          "name": "title",
          "type": "string"
        },
        {
          "indexed": false,
          "internalType": "string",
          "name": "description",
          "type": "string"
        },
        {
          "indexed": false,
          "internalType": "string",
          "name": "category",
          "type": "string"
        },
        {
          "indexed": false,
          "internalType": "string",
          "name": "location",
          "type": "string"
        },
        {
          "indexed": false,
          "internalType": "string",
          "name": "thumbnailHash",
          "type": "string"
        }
      ],
      "name": "VideoInfoUpdated",
      "type": "event"
    },
    {
      "anonymous": false,
      "inputs": [
        {
          "indexed": true,
          "internalType": "uint256",
          "name": "id",
          "type": "uint256"
        },
        {
          "indexed": true,
          "internalType": "uint256",
          "name": "videoId",
          "type": "uint256"
        },
        {
          "indexed": false,
          "internalType": "uint256",
          "name": "amount",
          "type": "uint256"
        },
        {
          "indexed": true,
          "internalType": "address",
          "name": "from",
          "type": "address"
        }
      ],
      "name": "VideoTipped",
      "type": "event"
    },
    {
      "inputs": [
        {
          "internalType": "string",
          "name": "_title",
          "type": "string"
        },
        {
          "internalType": "string",
          "name": "_description",
          "type": "string"
        },
        {
          "internalType": "string",
          "name": "_category",
          "type": "string"
        },
        {
          "internalType": "string",
          "name": "_location",
          "type": "string"
        },
        {
          "internalType": "string",
          "name": "_thumbnailHash",
          "type": "string"
        },
        {
          "internalType": "string",
          "name": "_videoHash",
          "type": "string"
        },
        {
          "internalType": "address",
          "name": "_eoa",
          "type": "address"
        }
      ],
      "name": "addVideo",
      "outputs": [],
      "stateMutability": "nonpayable",
      "type": "function"
    },
    {
      "inputs": [
        {
          "internalType": "address",
          "name": "to",
          "type": "address"
        },
        {
          "internalType": "uint256",
          "name": "tokenId",
          "type": "uint256"
        }
      ],
      "name": "approve",
      "outputs": [],
      "stateMutability": "nonpayable",
      "type": "function"
    },
    {
      "inputs": [
        {
          "internalType": "address",
          "name": "owner",
          "type": "address"
        }
      ],
      "name": "balanceOf",
      "outputs": [
        {
          "internalType": "uint256",
          "name": "",
          "type": "uint256"
        }
      ],
      "stateMutability": "view",
      "type": "function"
    },
    {
      "inputs": [
        {
          "internalType": "uint256",
          "name": "tokenId",
          "type": "uint256"
        }
      ],
      "name": "getApproved",
      "outputs": [
        {
          "internalType": "address",
          "name": "",
          "type": "address"
        }
      ],
      "stateMutability": "view",
      "type": "function"
    },
    {
      "inputs": [
        {
          "internalType": "address",
          "name": "owner",
          "type": "address"
        },
        {
          "internalType": "address",
          "name": "operator",
          "type": "address"
        }
      ],
      "name": "isApprovedForAll",
      "outputs": [
        {
          "internalType": "bool",
          "name": "",
          "type": "bool"
        }
      ],
      "stateMutability": "view",
      "type": "function"
    },
    {
      "inputs": [],
      "name": "name",
      "outputs": [
        {
          "internalType": "string",
          "name": "",
          "type": "string"
        }
      ],
      "stateMutability": "view",
      "type": "function"
    },
    {
      "inputs": [],
      "name": "nextVideoId",
      "outputs": [
        {
          "internalType": "uint256",
          "name": "",
          "type": "uint256"
        }
      ],
      "stateMutability": "view",
      "type": "function"
    },
    {
      "inputs": [
        {
          "internalType": "uint256",
          "name": "tokenId",
          "type": "uint256"
        }
      ],
      "name": "ownerOf",
      "outputs": [
        {
          "internalType": "address",
          "name": "",
          "type": "address"
        }
      ],
      "stateMutability": "view",
      "type": "function"
    },
    {
      "inputs": [
        {
          "internalType": "address",
          "name": "from",
          "type": "address"
        },
        {
          "internalType": "address",
          "name": "to",
          "type": "address"
        },
        {
          "internalType": "uint256",
          "name": "tokenId",
          "type": "uint256"
        }
      ],
      "name": "safeTransferFrom",
      "outputs": [],
      "stateMutability": "nonpayable",
      "type": "function"
    },
    {
      "inputs": [
        {
          "internalType": "address",
          "name": "from",
          "type": "address"
        },
        {
          "internalType": "address",
          "name": "to",
          "type": "address"
        },
        {
          "internalType": "uint256",
          "name": "tokenId",
          "type": "uint256"
        },
        {
          "internalType": "bytes",
          "name": "data",
          "type": "bytes"
        }
      ],
      "name": "safeTransferFrom",
      "outputs": [],
      "stateMutability": "nonpayable",
      "type": "function"
    },
    {
      "inputs": [
        {
          "internalType": "address",
          "name": "operator",
          "type": "address"
        },
        {
          "internalType": "bool",
          "name": "approved",
          "type": "bool"
        }
      ],
      "name": "setApprovalForAll",
      "outputs": [],
      "stateMutability": "nonpayable",
      "type": "function"
    },
    {
      "inputs": [
        {
          "internalType": "bytes4",
          "name": "interfaceId",
          "type": "bytes4"
        }
      ],
      "name": "supportsInterface",
      "outputs": [
        {
          "internalType": "bool",
          "name": "",
          "type": "bool"
        }
      ],
      "stateMutability": "view",
      "type": "function"
    },
    {
      "inputs": [],
      "name": "symbol",
      "outputs": [
        {
          "internalType": "string",
          "name": "",
          "type": "string"
        }
      ],
      "stateMutability": "view",
      "type": "function"
    },
    {
      "inputs": [
        {
          "internalType": "uint256",
          "name": "_videoId",
          "type": "uint256"
        },
        {
          "internalType": "uint256",
          "name": "_amount",
          "type": "uint256"
        }
      ],
      "name": "tipVideo",
      "outputs": [],
      "stateMutability": "payable",
      "type": "function"
    },
    {
      "inputs": [
        {
          "internalType": "uint256",
          "name": "videoId",
          "type": "uint256"
        },
        {
          "internalType": "uint256",
          "name": "tipId",
          "type": "uint256"
        }
      ],
      "name": "tips",
      "outputs": [
        {
          "internalType": "uint256",
          "name": "id",
          "type": "uint256"
        },
        {
          "internalType": "uint256",
          "name": "videoId",
          "type": "uint256"
        },
        {
          "internalType": "uint256",
          "name": "amount",
          "type": "uint256"
        },
        {
          "internalType": "address",
          "name": "from",
          "type": "address"
        }
      ],
      "stateMutability": "view",
      "type": "function"
    },
    {
      "inputs": [
        {
          "internalType": "uint256",
          "name": "tokenId",
          "type": "uint256"
        }
      ],
      "name": "tokenURI",
      "outputs": [
        {
          "internalType": "string",
          "name": "",
          "type": "string"
        }
      ],
      "stateMutability": "view",
      "type": "function"
    },
    {
      "inputs": [
        {
          "internalType": "address",
          "name": "from",
          "type": "address"
        },
        {
          "internalType": "address",
          "name": "to",
          "type": "address"
        },
        {
          "internalType": "uint256",
          "name": "tokenId",
          "type": "uint256"
        }
      ],
      "name": "transferFrom",
      "outputs": [],
      "stateMutability": "nonpayable",
      "type": "function"
    },
    {
      "inputs": [
        {
          "internalType": "uint256",
          "name": "_videoId",
          "type": "uint256"
        },
        {
          "internalType": "string",
          "name": "_title",
          "type": "string"
        },
        {
          "internalType": "string",
          "name": "_description",
          "type": "string"
        },
        {
          "internalType": "string",
          "name": "_category",
          "type": "string"
        },
        {
          "internalType": "string",
          "name": "_location",
          "type": "string"
        },
        {
          "internalType": "string",
          "name": "_thumbnailHash",
          "type": "string"
        }
      ],
      "name": "updateVideoInfo",
      "outputs": [],
      "stateMutability": "nonpayable",
      "type": "function"
    },
    {
      "inputs": [
        {
          "internalType": "uint256",
          "name": "id",
          "type": "uint256"
        }
      ],
      "name": "videos",
      "outputs": [
        {
          "internalType": "uint256",
          "name": "id",
          "type": "uint256"
        },
        {
          "internalType": "string",
          "name": "title",
          "type": "string"
        },
        {
          "internalType": "string",
          "name": "description",
          "type": "string"
        },
        {
          "internalType": "string",
          "name": "category",
          "type": "string"
        },
        {
          "internalType": "string",
          "name": "location",
          "type": "string"
        },
        {
          "internalType": "string",
          "name": "thumbnailHash",
          "type": "string"
        },
        {
          "internalType": "string",
          "name": "videoHash",
          "type": "string"
        },
        {
          "internalType": "address",
          "name": "owner",
          "type": "address"
        },
        {
          "internalType": "address",
          "name": "eoa",
          "type": "address"
        },
        {
          "internalType": "uint256",
          "name": "tipAmount",
          "type": "uint256"
        },
        {
          "internalType": "uint256",
          "name": "tipsCount",
          "type": "uint256"
        }
      ],
      "stateMutability": "view",
      "type": "function"
    }
  ],
  "bytecode": "0x608060405234801561001057600080fd5b506040518060400160405280600881526020017f56696456657273650000000000000000000000000000000000000000000000008152506040518060400160405280600381526020017f5649440000000000000000000000000000000000000000000000000000000000815250816000908161008c91906102f4565b50806001908161009c91906102f4565b5050506103c6565b600081519050919050565b7f4e487b7100000000000000000000000000000000000000000000000000000000600052604160045260246000fd5b7f4e487b7100000000000000000000000000000000000000000000000000000000600052602260045260246000fd5b6000600282049050600182168061012557607f821691505b602082108103610138576101376100de565b5b50919050565b60008190508160005260206000209050919050565b60006020601f8301049050919050565b600082821b905092915050565b6000600883026101a07fffffffffffffffffffffffffffffffffffffffffffffffffffffffffffffffff82610163565b6101aa8683610163565b95508019841693508086168417925050509392505050565b6000819050919050565b6000819050919050565b60006101f16101ec6101e7846101c2565b6101cc565b6101c2565b9050919050565b6000819050919050565b61020b836101d6565b61021f610217826101f8565b848454610170565b825550505050565b600090565b610234610227565b61023f818484610202565b505050565b5b818110156102635761025860008261022c565b600181019050610245565b5050565b601f8211156102a8576102798161013e565b61028284610153565b81016020851015610291578190505b6102a561029d85610153565b830182610244565b50505b505050565b600082821c905092915050565b60006102cb600019846008026102ad565b1980831691505092915050565b60006102e483836102ba565b9150826002028217905092915050565b6102fd826100a4565b67ffffffffffffffff811115610316576103156100af565b5b610320825461010d565b61032b828285610267565b600060209050601f83116001811461035e576000841561034c578287015190505b61035685826102d8565b8655506103be565b601f19841661036c8661013e565b60005b828110156103945784890151825560018201915060208501945060208101905061036f565b868310156103b157848901516103ad601f8916826102ba565b8355505b6001600288020188555050505b505050505050565b614993806103d56000396000f3fe6080604052600436106101145760003560e01c806375dd1d44116100a0578063c87b56dd11610064578063c87b56dd146103a0578063e6821bf5146103dd578063e74f774314610424578063e985e9c51461044d578063f1094ffe1461048a57610114565b806375dd1d44146102cf57806395d89b41146102f8578063a062ab2b14610323578063a22cb4651461034e578063b88d4fde1461037757610114565b8063095ea7b3116100e7578063095ea7b3146101da57806323b872dd1461020357806342842e0e1461022c5780636352211e1461025557806370a082311461029257610114565b806301ffc9a714610119578063053985631461015657806306fdde0314610172578063081812fc1461019d575b600080fd5b34801561012557600080fd5b50610140600480360381019061013b9190612e0b565b6104ca565b60405161014d9190612e53565b60405180910390f35b610170600480360381019061016b9190612ea4565b6105ac565b005b34801561017e57600080fd5b50610187610985565b6040516101949190612f74565b60405180910390f35b3480156101a957600080fd5b506101c460048036038101906101bf9190612f96565b610a17565b6040516101d19190613004565b60405180910390f35b3480156101e657600080fd5b5061020160048036038101906101fc919061304b565b610a33565b005b34801561020f57600080fd5b5061022a6004803603810190610225919061308b565b610a49565b005b34801561023857600080fd5b50610253600480360381019061024e919061308b565b610b4b565b005b34801561026157600080fd5b5061027c60048036038101906102779190612f96565b610b6b565b6040516102899190613004565b60405180910390f35b34801561029e57600080fd5b506102b960048036038101906102b491906130de565b610b7d565b6040516102c6919061311a565b60405180910390f35b3480156102db57600080fd5b506102f660048036038101906102f1919061326a565b610c37565b005b34801561030457600080fd5b5061030d610f65565b60405161031a9190612f74565b60405180910390f35b34801561032f57600080fd5b50610338610ff7565b604051610345919061311a565b60405180910390f35b34801561035a57600080fd5b50610375600480360381019061037091906133e0565b610ffd565b005b34801561038357600080fd5b5061039e600480360381019061039991906134c1565b611013565b005b3480156103ac57600080fd5b506103c760048036038101906103c29190612f96565b611038565b6040516103d49190612f74565b60405180910390f35b3480156103e957600080fd5b5061040460048036038101906103ff9190612f96565b6110c1565b60405161041b9b9a99989796959493929190613544565b60405180910390f35b34801561043057600080fd5b5061044b60048036038101906104469190613619565b61148b565b005b34801561045957600080fd5b50610474600480360381019061046f9190613732565b61176f565b6040516104819190612e53565b60405180910390f35b34801561049657600080fd5b506104b160048036038101906104ac9190612ea4565b611803565b6040516104c19493929190613772565b60405180910390f35b60007f80ac58cd000000000000000000000000000000000000000000000000000000007bffffffffffffffffffffffffffffffffffffffffffffffffffffffff1916827bffffffffffffffffffffffffffffffffffffffffffffffffffffffff1916148061059557507f5b5e139f000000000000000000000000000000000000000000000000000000007bffffffffffffffffffffffffffffffffffffffffffffffffffffffff1916827bffffffffffffffffffffffffffffffffffffffffffffffffffffffff1916145b806105a557506105a482611860565b5b9050919050565b81600073ffffffffffffffffffffffffffffffffffffffff166007600083815260200190815260200160002060070160009054906101000a900473ffffffffffffffffffffffffffffffffffffffff1673ffffffffffffffffffffffffffffffffffffffff1603610652576040517f08c379a000000000000000000000000000000000000000000000000000000000815260040161064990613803565b60405180910390fd5b600060076000858152602001908152602001600020905060008160080160009054906101000a900473ffffffffffffffffffffffffffffffffffffffff1690503373ffffffffffffffffffffffffffffffffffffffff168173ffffffffffffffffffffffffffffffffffffffff1603610700576040517f08c379a00000000000000000000000000000000000000000000000000000000081526004016106f79061386f565b60405180910390fd5b60008411610743576040517f08c379a000000000000000000000000000000000000000000000000000000000815260040161073a90613901565b60405180910390fd5b833414610785576040517f08c379a000000000000000000000000000000000000000000000000000000000815260040161077c9061396d565b60405180910390fd5b8382600901600082825461079991906139bc565b92505081905550600082600a0160008154809291906107b7906139f0565b91905055905060405180608001604052808281526020018781526020018681526020013373ffffffffffffffffffffffffffffffffffffffff1681525060086000888152602001908152602001600020600083815260200190815260200160002060008201518160000155602082015181600101556040820151816002015560608201518160030160006101000a81548173ffffffffffffffffffffffffffffffffffffffff021916908373ffffffffffffffffffffffffffffffffffffffff16021790555090505060008273ffffffffffffffffffffffffffffffffffffffff16866040516108a690613a69565b60006040518083038185875af1925050503d80600081146108e3576040519150601f19603f3d011682016040523d82523d6000602084013e6108e8565b606091505b505090508061092c576040517f08c379a000000000000000000000000000000000000000000000000000000000815260040161092390613aca565b60405180910390fd5b3373ffffffffffffffffffffffffffffffffffffffff1687837f05cf9c905d9b3910a259077faf2df7ce0103d90b2dbaa0509e45929af0c1a3b289604051610974919061311a565b60405180910390a450505050505050565b60606000805461099490613b19565b80601f01602080910402602001604051908101604052809291908181526020018280546109c090613b19565b8015610a0d5780601f106109e257610100808354040283529160200191610a0d565b820191906000526020600020905b8154815290600101906020018083116109f057829003601f168201915b5050505050905090565b6000610a22826118ca565b50610a2c82611952565b9050919050565b610a458282610a4061198f565b611997565b5050565b600073ffffffffffffffffffffffffffffffffffffffff168273ffffffffffffffffffffffffffffffffffffffff1603610abb5760006040517f64a0ae92000000000000000000000000000000000000000000000000000000008152600401610ab29190613004565b60405180910390fd5b6000610acf8383610aca61198f565b6119a9565b90508373ffffffffffffffffffffffffffffffffffffffff168173ffffffffffffffffffffffffffffffffffffffff1614610b45578382826040517f64283d7b000000000000000000000000000000000000000000000000000000008152600401610b3c93929190613b4a565b60405180910390fd5b50505050565b610b6683838360405180602001604052806000815250611013565b505050565b6000610b76826118ca565b9050919050565b60008073ffffffffffffffffffffffffffffffffffffffff168273ffffffffffffffffffffffffffffffffffffffff1603610bf05760006040517f89c62b64000000000000000000000000000000000000000000000000000000008152600401610be79190613004565b60405180910390fd5b600360008373ffffffffffffffffffffffffffffffffffffffff1673ffffffffffffffffffffffffffffffffffffffff168152602001908152602001600020549050919050565b6000825111610c7b576040517f08c379a0000000000000000000000000000000000000000000000000000000008152600401610c7290613bcd565b60405180910390fd5b6000835111610cbf576040517f08c379a0000000000000000000000000000000000000000000000000000000008152600401610cb690613c39565b60405180910390fd5b6000875111610d03576040517f08c379a0000000000000000000000000000000000000000000000000000000008152600401610cfa90613ca5565b60405180910390fd5b600060066000815480929190610d18906139f0565b9190505590506040518061016001604052808281526020018981526020018881526020018781526020018681526020018581526020018481526020013373ffffffffffffffffffffffffffffffffffffffff1681526020018373ffffffffffffffffffffffffffffffffffffffff16815260200160008152602001600081525060076000838152602001908152602001600020600082015181600001556020820151816001019081610dca9190613e71565b506040820151816002019081610de09190613e71565b506060820151816003019081610df69190613e71565b506080820151816004019081610e0c9190613e71565b5060a0820151816005019081610e229190613e71565b5060c0820151816006019081610e389190613e71565b5060e08201518160070160006101000a81548173ffffffffffffffffffffffffffffffffffffffff021916908373ffffffffffffffffffffffffffffffffffffffff1602179055506101008201518160080160006101000a81548173ffffffffffffffffffffffffffffffffffffffff021916908373ffffffffffffffffffffffffffffffffffffffff160217905550610120820151816009015561014082015181600a0155905050610eeb8282611a72565b8173ffffffffffffffffffffffffffffffffffffffff163373ffffffffffffffffffffffffffffffffffffffff16827f951db6f205817ca52c80a8bb005c62364854237697e9570f0a0580d04743d8cd8b8b8b8b8b8b604051610f5396959493929190613f43565b60405180910390a45050505050505050565b606060018054610f7490613b19565b80601f0160208091040260200160405190810160405280929190818152602001828054610fa090613b19565b8015610fed5780601f10610fc257610100808354040283529160200191610fed565b820191906000526020600020905b815481529060010190602001808311610fd057829003601f168201915b5050505050905090565b60065481565b61100f61100861198f565b8383611a90565b5050565b61101e848484610a49565b61103261102961198f565b85858585611bff565b50505050565b6060600073ffffffffffffffffffffffffffffffffffffffff1661105b83611db0565b73ffffffffffffffffffffffffffffffffffffffff16036110b1576040517f08c379a00000000000000000000000000000000000000000000000000000000081526004016110a89061401a565b60405180910390fd5b6110ba82611ded565b9050919050565b60076020528060005260406000206000915090508060000154908060010180546110ea90613b19565b80601f016020809104026020016040519081016040528092919081815260200182805461111690613b19565b80156111635780601f1061113857610100808354040283529160200191611163565b820191906000526020600020905b81548152906001019060200180831161114657829003601f168201915b50505050509080600201805461117890613b19565b80601f01602080910402602001604051908101604052809291908181526020018280546111a490613b19565b80156111f15780601f106111c6576101008083540402835291602001916111f1565b820191906000526020600020905b8154815290600101906020018083116111d457829003601f168201915b50505050509080600301805461120690613b19565b80601f016020809104026020016040519081016040528092919081815260200182805461123290613b19565b801561127f5780601f106112545761010080835404028352916020019161127f565b820191906000526020600020905b81548152906001019060200180831161126257829003601f168201915b50505050509080600401805461129490613b19565b80601f01602080910402602001604051908101604052809291908181526020018280546112c090613b19565b801561130d5780601f106112e25761010080835404028352916020019161130d565b820191906000526020600020905b8154815290600101906020018083116112f057829003601f168201915b50505050509080600501805461132290613b19565b80601f016020809104026020016040519081016040528092919081815260200182805461134e90613b19565b801561139b5780601f106113705761010080835404028352916020019161139b565b820191906000526020600020905b81548152906001019060200180831161137e57829003601f168201915b5050505050908060060180546113b090613b19565b80601f01602080910402602001604051908101604052809291908181526020018280546113dc90613b19565b80156114295780601f106113fe57610100808354040283529160200191611429565b820191906000526020600020905b81548152906001019060200180831161140c57829003601f168201915b5050505050908060070160009054906101000a900473ffffffffffffffffffffffffffffffffffffffff16908060080160009054906101000a900473ffffffffffffffffffffffffffffffffffffffff169080600901549080600a015490508b565b85600073ffffffffffffffffffffffffffffffffffffffff166007600083815260200190815260200160002060070160009054906101000a900473ffffffffffffffffffffffffffffffffffffffff1673ffffffffffffffffffffffffffffffffffffffff1603611531576040517f08c379a000000000000000000000000000000000000000000000000000000000815260040161152890613803565b60405180910390fd5b60006007600089815260200190815260200160002090503373ffffffffffffffffffffffffffffffffffffffff168160070160009054906101000a900473ffffffffffffffffffffffffffffffffffffffff1673ffffffffffffffffffffffffffffffffffffffff1614806115f557503373ffffffffffffffffffffffffffffffffffffffff168160080160009054906101000a900473ffffffffffffffffffffffffffffffffffffffff1673ffffffffffffffffffffffffffffffffffffffff16145b611634576040517f08c379a000000000000000000000000000000000000000000000000000000000815260040161162b906140ac565b60405180910390fd5b6000875111611678576040517f08c379a000000000000000000000000000000000000000000000000000000000815260040161166f90613ca5565b60405180910390fd5b60008351116116bc576040517f08c379a00000000000000000000000000000000000000000000000000000000081526004016116b390613c39565b60405180910390fd5b868160010190816116cd9190613e71565b50858160020190816116df9190613e71565b50848160030190816116f19190613e71565b50838160040190816117039190613e71565b50828160050190816117159190613e71565b50877ff431dadcad3bf1eabdd0294c35f83eacfbabe1e183dfba39f069c229365945af826001018360020184600301856004018660050160405161175d959493929190614150565b60405180910390a25050505050505050565b6000600560008473ffffffffffffffffffffffffffffffffffffffff1673ffffffffffffffffffffffffffffffffffffffff16815260200190815260200160002060008373ffffffffffffffffffffffffffffffffffffffff1673ffffffffffffffffffffffffffffffffffffffff16815260200190815260200160002060009054906101000a900460ff16905092915050565b6008602052816000526040600020602052806000526040600020600091509150508060000154908060010154908060020154908060030160009054906101000a900473ffffffffffffffffffffffffffffffffffffffff16905084565b60007f01ffc9a7000000000000000000000000000000000000000000000000000000007bffffffffffffffffffffffffffffffffffffffffffffffffffffffff1916827bffffffffffffffffffffffffffffffffffffffffffffffffffffffff1916149050919050565b6000806118d683611db0565b9050600073ffffffffffffffffffffffffffffffffffffffff168173ffffffffffffffffffffffffffffffffffffffff160361194957826040517f7e273289000000000000000000000000000000000000000000000000000000008152600401611940919061311a565b60405180910390fd5b80915050919050565b60006004600083815260200190815260200160002060009054906101000a900473ffffffffffffffffffffffffffffffffffffffff169050919050565b600033905090565b6119a4838383600161233c565b505050565b6000806119b584611db0565b9050600073ffffffffffffffffffffffffffffffffffffffff168173ffffffffffffffffffffffffffffffffffffffff161480611a1e5750600073ffffffffffffffffffffffffffffffffffffffff168573ffffffffffffffffffffffffffffffffffffffff16145b611a5d576040517f08c379a0000000000000000000000000000000000000000000000000000000008152600401611a5490614212565b60405180910390fd5b611a68858585612501565b9150509392505050565b611a8c82826040518060200160405280600081525061271b565b5050565b600073ffffffffffffffffffffffffffffffffffffffff168273ffffffffffffffffffffffffffffffffffffffff1603611b0157816040517f5b08ba18000000000000000000000000000000000000000000000000000000008152600401611af89190613004565b60405180910390fd5b80600560008573ffffffffffffffffffffffffffffffffffffffff1673ffffffffffffffffffffffffffffffffffffffff16815260200190815260200160002060008473ffffffffffffffffffffffffffffffffffffffff1673ffffffffffffffffffffffffffffffffffffffff16815260200190815260200160002060006101000a81548160ff0219169083151502179055508173ffffffffffffffffffffffffffffffffffffffff168373ffffffffffffffffffffffffffffffffffffffff167f17307eab39ab6107e8899845ad3d59bd9653f200f220920489ca2b5937696c3183604051611bf29190612e53565b60405180910390a3505050565b60008373ffffffffffffffffffffffffffffffffffffffff163b1115611da9578273ffffffffffffffffffffffffffffffffffffffff1663150b7a02868685856040518563ffffffff1660e01b8152600401611c5e9493929190614287565b6020604051808303816000875af1925050508015611c9a57506040513d601f19601f82011682018060405250810190611c9791906142e8565b60015b611d1e573d8060008114611cca576040519150601f19603f3d011682016040523d82523d6000602084013e611ccf565b606091505b506000815103611d1657836040517f64a0ae92000000000000000000000000000000000000000000000000000000008152600401611d0d9190613004565b60405180910390fd5b805181602001fd5b63150b7a0260e01b7bffffffffffffffffffffffffffffffffffffffffffffffffffffffff1916817bffffffffffffffffffffffffffffffffffffffffffffffffffffffff191614611da757836040517f64a0ae92000000000000000000000000000000000000000000000000000000008152600401611d9e9190613004565b60405180910390fd5b505b5050505050565b60006002600083815260200190815260200160002060009054906101000a900473ffffffffffffffffffffffffffffffffffffffff169050919050565b60606000600760008481526020019081526020016000206040518061016001604052908160008201548152602001600182018054611e2a90613b19565b80601f0160208091040260200160405190810160405280929190818152602001828054611e5690613b19565b8015611ea35780601f10611e7857610100808354040283529160200191611ea3565b820191906000526020600020905b815481529060010190602001808311611e8657829003601f168201915b50505050508152602001600282018054611ebc90613b19565b80601f0160208091040260200160405190810160405280929190818152602001828054611ee890613b19565b8015611f355780601f10611f0a57610100808354040283529160200191611f35565b820191906000526020600020905b815481529060010190602001808311611f1857829003601f168201915b50505050508152602001600382018054611f4e90613b19565b80601f0160208091040260200160405190810160405280929190818152602001828054611f7a90613b19565b8015611fc75780601f10611f9c57610100808354040283529160200191611fc7565b820191906000526020600020905b815481529060010190602001808311611faa57829003601f168201915b50505050508152602001600482018054611fe090613b19565b80601f016020809104026020016040519081016040528092919081815260200182805461200c90613b19565b80156120595780601f1061202e57610100808354040283529160200191612059565b820191906000526020600020905b81548152906001019060200180831161203c57829003601f168201915b5050505050815260200160058201805461207290613b19565b80601f016020809104026020016040519081016040528092919081815260200182805461209e90613b19565b80156120eb5780601f106120c0576101008083540402835291602001916120eb565b820191906000526020600020905b8154815290600101906020018083116120ce57829003601f168201915b5050505050815260200160068201805461210490613b19565b80601f016020809104026020016040519081016040528092919081815260200182805461213090613b19565b801561217d5780601f106121525761010080835404028352916020019161217d565b820191906000526020600020905b81548152906001019060200180831161216057829003601f168201915b505050505081526020016007820160009054906101000a900473ffffffffffffffffffffffffffffffffffffffff1673ffffffffffffffffffffffffffffffffffffffff1673ffffffffffffffffffffffffffffffffffffffff1681526020016008820160009054906101000a900473ffffffffffffffffffffffffffffffffffffffff1673ffffffffffffffffffffffffffffffffffffffff1673ffffffffffffffffffffffffffffffffffffffff16815260200160098201548152602001600a8201548152505090506000816020015182604001516040518060400160405280601581526020017f68747470733a2f2f697066732e696f2f697066732f00000000000000000000008152508460c00151856060015186608001516040518060400160405280601581526020017f68747470733a2f2f697066732e696f2f697066732f00000000000000000000008152508860a001516122e28a610120015161273f565b6040516020016122fa999897969594939291906146e1565b60405160208183030381529060405290506123148161280d565b6040516020016123249190614830565b60405160208183030381529060405292505050919050565b80806123755750600073ffffffffffffffffffffffffffffffffffffffff168273ffffffffffffffffffffffffffffffffffffffff1614155b156124a9576000612385846118ca565b9050600073ffffffffffffffffffffffffffffffffffffffff168373ffffffffffffffffffffffffffffffffffffffff16141580156123f057508273ffffffffffffffffffffffffffffffffffffffff168173ffffffffffffffffffffffffffffffffffffffff1614155b80156124035750612401818461176f565b155b1561244557826040517fa9fbf51f00000000000000000000000000000000000000000000000000000000815260040161243c9190613004565b60405180910390fd5b81156124a757838573ffffffffffffffffffffffffffffffffffffffff168273ffffffffffffffffffffffffffffffffffffffff167f8c5be1e5ebec7d5bd14f71427d1e84f3dd0314c0f7b2291e5b200ac8c7c3b92560405160405180910390a45b505b836004600085815260200190815260200160002060006101000a81548173ffffffffffffffffffffffffffffffffffffffff021916908373ffffffffffffffffffffffffffffffffffffffff16021790555050505050565b60008061250d84611db0565b9050600073ffffffffffffffffffffffffffffffffffffffff168373ffffffffffffffffffffffffffffffffffffffff161461254f5761254e81848661283a565b5b600073ffffffffffffffffffffffffffffffffffffffff168173ffffffffffffffffffffffffffffffffffffffff16146125e05761259160008560008061233c565b6001600360008373ffffffffffffffffffffffffffffffffffffffff1673ffffffffffffffffffffffffffffffffffffffff168152602001908152602001600020600082825403925050819055505b600073ffffffffffffffffffffffffffffffffffffffff168573ffffffffffffffffffffffffffffffffffffffff1614612663576001600360008773ffffffffffffffffffffffffffffffffffffffff1673ffffffffffffffffffffffffffffffffffffffff168152602001908152602001600020600082825401925050819055505b846002600086815260200190815260200160002060006101000a81548173ffffffffffffffffffffffffffffffffffffffff021916908373ffffffffffffffffffffffffffffffffffffffff160217905550838573ffffffffffffffffffffffffffffffffffffffff168273ffffffffffffffffffffffffffffffffffffffff167fddf252ad1be2c89b69c2b068fc378daa952ba7f163c4a11628f55a4df523b3ef60405160405180910390a4809150509392505050565b61272583836128fe565b61273a61273061198f565b6000858585611bff565b505050565b60606000600161274e846129f7565b01905060008167ffffffffffffffff81111561276d5761276c61313f565b5b6040519080825280601f01601f19166020018201604052801561279f5781602001600182028036833780820191505090505b509050600082602001820190505b600115612802578080600190039150507f3031323334353637383961626364656600000000000000000000000000000000600a86061a8153600a85816127f6576127f5614852565b5b049450600085036127ad575b819350505050919050565b60606128338260405180606001604052806040815260200161491e604091396001612b4a565b9050919050565b612845838383612cde565b6128f957600073ffffffffffffffffffffffffffffffffffffffff168373ffffffffffffffffffffffffffffffffffffffff16036128ba57806040517f7e2732890000000000000000000000000000000000000000000000000000000081526004016128b1919061311a565b60405180910390fd5b81816040517f177e802f0000000000000000000000000000000000000000000000000000000081526004016128f0929190614881565b60405180910390fd5b505050565b600073ffffffffffffffffffffffffffffffffffffffff168273ffffffffffffffffffffffffffffffffffffffff16036129705760006040517f64a0ae920000000000000000000000000000000000000000000000000000000081526004016129679190613004565b60405180910390fd5b600061297e838360006119a9565b9050600073ffffffffffffffffffffffffffffffffffffffff168173ffffffffffffffffffffffffffffffffffffffff16146129f25760006040517f73c6ac6e0000000000000000000000000000000000000000000000000000000081526004016129e99190613004565b60405180910390fd5b505050565b600080600090507a184f03e93ff9f4daa797ed6e38ed64bf6a1f0100000000000000008310612a55577a184f03e93ff9f4daa797ed6e38ed64bf6a1f0100000000000000008381612a4b57612a4a614852565b5b0492506040810190505b6d04ee2d6d415b85acef81000000008310612a92576d04ee2d6d415b85acef81000000008381612a8857612a87614852565b5b0492506020810190505b662386f26fc100008310612ac157662386f26fc100008381612ab757612ab6614852565b5b0492506010810190505b6305f5e1008310612aea576305f5e1008381612ae057612adf614852565b5b0492506008810190505b6127108310612b0f576127108381612b0557612b04614852565b5b0492506004810190505b60648310612b325760648381612b2857612b27614852565b5b0492506002810190505b600a8310612b41576001810190505b80915050919050565b60606000845103612b6c57604051806020016040528060008152509050612cd7565b600082612b9e576003600286516004612b8591906148aa565b612b8f91906139bc565b612b9991906148ec565b612bc5565b600360028651612bae91906139bc565b612bb891906148ec565b6004612bc491906148aa565b5b905060008167ffffffffffffffff811115612be357612be261313f565b5b6040519080825280601f01601f191660200182016040528015612c155781602001600182028036833780820191505090505b50905060018501602082018788518901602081018051600082525b82841015612c8b576003840193508351603f8160121c168701518653600186019550603f81600c1c168701518653600186019550603f8160061c168701518653600186019550603f8116870151865360018601955050612c30565b8082528915612ccb5760038c510660018114612cae5760028114612cc157612cc9565b603d6001870353603d6002870353612cc9565b603d60018703535b505b50505050505080925050505b9392505050565b60008073ffffffffffffffffffffffffffffffffffffffff168373ffffffffffffffffffffffffffffffffffffffff1614158015612d9657508273ffffffffffffffffffffffffffffffffffffffff168473ffffffffffffffffffffffffffffffffffffffff161480612d575750612d56848461176f565b5b80612d9557508273ffffffffffffffffffffffffffffffffffffffff16612d7d83611952565b73ffffffffffffffffffffffffffffffffffffffff16145b5b90509392505050565b6000604051905090565b600080fd5b600080fd5b60007fffffffff0000000000000000000000000000000000000000000000000000000082169050919050565b612de881612db3565b8114612df357600080fd5b50565b600081359050612e0581612ddf565b92915050565b600060208284031215612e2157612e20612da9565b5b6000612e2f84828501612df6565b91505092915050565b60008115159050919050565b612e4d81612e38565b82525050565b6000602082019050612e686000830184612e44565b92915050565b6000819050919050565b612e8181612e6e565b8114612e8c57600080fd5b50565b600081359050612e9e81612e78565b92915050565b60008060408385031215612ebb57612eba612da9565b5b6000612ec985828601612e8f565b9250506020612eda85828601612e8f565b9150509250929050565b600081519050919050565b600082825260208201905092915050565b60005b83811015612f1e578082015181840152602081019050612f03565b60008484015250505050565b6000601f19601f8301169050919050565b6000612f4682612ee4565b612f508185612eef565b9350612f60818560208601612f00565b612f6981612f2a565b840191505092915050565b60006020820190508181036000830152612f8e8184612f3b565b905092915050565b600060208284031215612fac57612fab612da9565b5b6000612fba84828501612e8f565b91505092915050565b600073ffffffffffffffffffffffffffffffffffffffff82169050919050565b6000612fee82612fc3565b9050919050565b612ffe81612fe3565b82525050565b60006020820190506130196000830184612ff5565b92915050565b61302881612fe3565b811461303357600080fd5b50565b6000813590506130458161301f565b92915050565b6000806040838503121561306257613061612da9565b5b600061307085828601613036565b925050602061308185828601612e8f565b9150509250929050565b6000806000606084860312156130a4576130a3612da9565b5b60006130b286828701613036565b93505060206130c386828701613036565b92505060406130d486828701612e8f565b9150509250925092565b6000602082840312156130f4576130f3612da9565b5b600061310284828501613036565b91505092915050565b61311481612e6e565b82525050565b600060208201905061312f600083018461310b565b92915050565b600080fd5b600080fd5b7f4e487b7100000000000000000000000000000000000000000000000000000000600052604160045260246000fd5b61317782612f2a565b810181811067ffffffffffffffff821117156131965761319561313f565b5b80604052505050565b60006131a9612d9f565b90506131b5828261316e565b919050565b600067ffffffffffffffff8211156131d5576131d461313f565b5b6131de82612f2a565b9050602081019050919050565b82818337600083830152505050565b600061320d613208846131ba565b61319f565b9050828152602081018484840111156132295761322861313a565b5b6132348482856131eb565b509392505050565b600082601f83011261325157613250613135565b5b81356132618482602086016131fa565b91505092915050565b600080600080600080600060e0888a03121561328957613288612da9565b5b600088013567ffffffffffffffff8111156132a7576132a6612dae565b5b6132b38a828b0161323c565b975050602088013567ffffffffffffffff8111156132d4576132d3612dae565b5b6132e08a828b0161323c565b965050604088013567ffffffffffffffff81111561330157613300612dae565b5b61330d8a828b0161323c565b955050606088013567ffffffffffffffff81111561332e5761332d612dae565b5b61333a8a828b0161323c565b945050608088013567ffffffffffffffff81111561335b5761335a612dae565b5b6133678a828b0161323c565b93505060a088013567ffffffffffffffff81111561338857613387612dae565b5b6133948a828b0161323c565b92505060c06133a58a828b01613036565b91505092959891949750929550565b6133bd81612e38565b81146133c857600080fd5b50565b6000813590506133da816133b4565b92915050565b600080604083850312156133f7576133f6612da9565b5b600061340585828601613036565b9250506020613416858286016133cb565b9150509250929050565b600067ffffffffffffffff82111561343b5761343a61313f565b5b61344482612f2a565b9050602081019050919050565b600061346461345f84613420565b61319f565b9050828152602081018484840111156134805761347f61313a565b5b61348b8482856131eb565b509392505050565b600082601f8301126134a8576134a7613135565b5b81356134b8848260208601613451565b91505092915050565b600080600080608085870312156134db576134da612da9565b5b60006134e987828801613036565b94505060206134fa87828801613036565b935050604061350b87828801612e8f565b925050606085013567ffffffffffffffff81111561352c5761352b612dae565b5b61353887828801613493565b91505092959194509250565b60006101608201905061355a600083018e61310b565b818103602083015261356c818d612f3b565b90508181036040830152613580818c612f3b565b90508181036060830152613594818b612f3b565b905081810360808301526135a8818a612f3b565b905081810360a08301526135bc8189612f3b565b905081810360c08301526135d08188612f3b565b90506135df60e0830187612ff5565b6135ed610100830186612ff5565b6135fb61012083018561310b565b61360961014083018461310b565b9c9b505050505050505050505050565b60008060008060008060c0878903121561363657613635612da9565b5b600061364489828a01612e8f565b965050602087013567ffffffffffffffff81111561366557613664612dae565b5b61367189828a0161323c565b955050604087013567ffffffffffffffff81111561369257613691612dae565b5b61369e89828a0161323c565b945050606087013567ffffffffffffffff8111156136bf576136be612dae565b5b6136cb89828a0161323c565b935050608087013567ffffffffffffffff8111156136ec576136eb612dae565b5b6136f889828a0161323c565b92505060a087013567ffffffffffffffff81111561371957613718612dae565b5b61372589828a0161323c565b9150509295509295509295565b6000806040838503121561374957613748612da9565b5b600061375785828601613036565b925050602061376885828601613036565b9150509250929050565b6000608082019050613787600083018761310b565b613794602083018661310b565b6137a1604083018561310b565b6137ae6060830184612ff5565b95945050505050565b7f566964656f20646f6573206e6f74206578697374000000000000000000000000600082015250565b60006137ed601483612eef565b91506137f8826137b7565b602082019050919050565b6000602082019050818103600083015261381c816137e0565b9050919050565b7f596f752063616e6e6f742074697020796f7572206f776e20766964656f000000600082015250565b6000613859601d83612eef565b915061386482613823565b602082019050919050565b600060208201905081810360008301526138888161384c565b9050919050565b7f54697020616d6f756e74206d7573742062652067726561746572207468616e2060008201527f3000000000000000000000000000000000000000000000000000000000000000602082015250565b60006138eb602183612eef565b91506138f68261388f565b604082019050919050565b6000602082019050818103600083015261391a816138de565b9050919050565b7f54697020616d6f756e74206d757374206d617463682076616c75650000000000600082015250565b6000613957601b83612eef565b915061396282613921565b602082019050919050565b600060208201905081810360008301526139868161394a565b9050919050565b7f4e487b7100000000000000000000000000000000000000000000000000000000600052601160045260246000fd5b60006139c782612e6e565b91506139d283612e6e565b92508282019050808211156139ea576139e961398d565b5b92915050565b60006139fb82612e6e565b91507fffffffffffffffffffffffffffffffffffffffffffffffffffffffffffffffff8203613a2d57613a2c61398d565b5b600182019050919050565b600081905092915050565b50565b6000613a53600083613a38565b9150613a5e82613a43565b600082019050919050565b6000613a7482613a46565b9150819050919050565b7f4661696c656420746f2073656e64207469700000000000000000000000000000600082015250565b6000613ab4601283612eef565b9150613abf82613a7e565b602082019050919050565b60006020820190508181036000830152613ae381613aa7565b9050919050565b7f4e487b7100000000000000000000000000000000000000000000000000000000600052602260045260246000fd5b60006002820490506001821680613b3157607f821691505b602082108103613b4457613b43613aea565b5b50919050565b6000606082019050613b5f6000830186612ff5565b613b6c602083018561310b565b613b796040830184612ff5565b949350505050565b7f566964656f20686173682063616e6e6f7420626520656d707479000000000000600082015250565b6000613bb7601a83612eef565b9150613bc282613b81565b602082019050919050565b60006020820190508181036000830152613be681613baa565b9050919050565b7f5468756d626e61696c20686173682063616e6e6f7420626520656d7074790000600082015250565b6000613c23601e83612eef565b9150613c2e82613bed565b602082019050919050565b60006020820190508181036000830152613c5281613c16565b9050919050565b7f5469746c652063616e6e6f7420626520656d7074790000000000000000000000600082015250565b6000613c8f601583612eef565b9150613c9a82613c59565b602082019050919050565b60006020820190508181036000830152613cbe81613c82565b9050919050565b60008190508160005260206000209050919050565b60006020601f8301049050919050565b600082821b905092915050565b600060088302613d277fffffffffffffffffffffffffffffffffffffffffffffffffffffffffffffffff82613cea565b613d318683613cea565b95508019841693508086168417925050509392505050565b6000819050919050565b6000613d6e613d69613d6484612e6e565b613d49565b612e6e565b9050919050565b6000819050919050565b613d8883613d53565b613d9c613d9482613d75565b848454613cf7565b825550505050565b600090565b613db1613da4565b613dbc818484613d7f565b505050565b5b81811015613de057613dd5600082613da9565b600181019050613dc2565b5050565b601f821115613e2557613df681613cc5565b613dff84613cda565b81016020851015613e0e578190505b613e22613e1a85613cda565b830182613dc1565b50505b505050565b600082821c905092915050565b6000613e4860001984600802613e2a565b1980831691505092915050565b6000613e618383613e37565b9150826002028217905092915050565b613e7a82612ee4565b67ffffffffffffffff811115613e9357613e9261313f565b5b613e9d8254613b19565b613ea8828285613de4565b600060209050601f831160018114613edb5760008415613ec9578287015190505b613ed38582613e55565b865550613f3b565b601f198416613ee986613cc5565b60005b82811015613f1157848901518255600182019150602085019450602081019050613eec565b86831015613f2e5784890151613f2a601f891682613e37565b8355505b6001600288020188555050505b505050505050565b600060c0820190508181036000830152613f5d8189612f3b565b90508181036020830152613f718188612f3b565b90508181036040830152613f858187612f3b565b90508181036060830152613f998186612f3b565b90508181036080830152613fad8185612f3b565b905081810360a0830152613fc18184612f3b565b9050979650505050505050565b7f55524920717565727920666f72206e6f6e2d6578697374656e7420746f6b656e600082015250565b6000614004602083612eef565b915061400f82613fce565b602082019050919050565b6000602082019050818103600083015261403381613ff7565b9050919050565b7f4f6e6c7920566964656f206f776e6572206f7220454f412063616e207570646160008201527f746520766964656f20696e666f00000000000000000000000000000000000000602082015250565b6000614096602d83612eef565b91506140a18261403a565b604082019050919050565b600060208201905081810360008301526140c581614089565b9050919050565b600081546140d981613b19565b6140e38186612eef565b945060018216600081146140fe576001811461411457614147565b60ff198316865281151560200286019350614147565b61411d85613cc5565b60005b8381101561413f57815481890152600182019150602081019050614120565b808801955050505b50505092915050565b600060a082019050818103600083015261416a81886140cc565b9050818103602083015261417e81876140cc565b9050818103604083015261419281866140cc565b905081810360608301526141a681856140cc565b905081810360808301526141ba81846140cc565b90509695505050505050565b7f5472616e73666572206e6f7420616c6c6f776564000000000000000000000000600082015250565b60006141fc601483612eef565b9150614207826141c6565b602082019050919050565b6000602082019050818103600083015261422b816141ef565b9050919050565b600081519050919050565b600082825260208201905092915050565b600061425982614232565b614263818561423d565b9350614273818560208601612f00565b61427c81612f2a565b840191505092915050565b600060808201905061429c6000830187612ff5565b6142a96020830186612ff5565b6142b6604083018561310b565b81810360608301526142c8818461424e565b905095945050505050565b6000815190506142e281612ddf565b92915050565b6000602082840312156142fe576142fd612da9565b5b600061430c848285016142d3565b91505092915050565b600081905092915050565b7f7b226e616d65223a220000000000000000000000000000000000000000000000600082015250565b6000614356600983614315565b915061436182614320565b600982019050919050565b600061437782612ee4565b6143818185614315565b9350614391818560208601612f00565b80840191505092915050565b7f222c20226465736372697074696f6e223a220000000000000000000000000000600082015250565b60006143d3601283614315565b91506143de8261439d565b601282019050919050565b7f222c202265787465726e616c5f75726c223a2200000000000000000000000000600082015250565b600061441f601383614315565b915061442a826143e9565b601382019050919050565b7f68747470733a2f2f6578616d706c652e636f6d00000000000000000000000000600082015250565b600061446b601383614315565b915061447682614435565b601382019050919050565b7f222c2022696d616765223a220000000000000000000000000000000000000000600082015250565b60006144b7600c83614315565b91506144c282614481565b600c82019050919050565b7f222c202270726f70657274696573223a7b000000000000000000000000000000600082015250565b6000614503601183614315565b915061450e826144cd565b601182019050919050565b7f2263617465676f7279223a220000000000000000000000000000000000000000600082015250565b600061454f600c83614315565b915061455a82614519565b600c82019050919050565b7f222c20226c6f636174696f6e223a220000000000000000000000000000000000600082015250565b600061459b600f83614315565b91506145a682614565565b600f82019050919050565b7f222c20227468756d626e61696c223a2200000000000000000000000000000000600082015250565b60006145e7601083614315565b91506145f2826145b1565b601082019050919050565b7f222c202274697073223a22000000000000000000000000000000000000000000600082015250565b6000614633600b83614315565b915061463e826145fd565b600b82019050919050565b7f227d000000000000000000000000000000000000000000000000000000000000600082015250565b600061467f600283614315565b915061468a82614649565b600282019050919050565b7f7d00000000000000000000000000000000000000000000000000000000000000600082015250565b60006146cb600183614315565b91506146d682614695565b600182019050919050565b60006146ec82614349565b91506146f8828c61436c565b9150614703826143c6565b915061470f828b61436c565b915061471a82614412565b91506147258261445e565b9150614730826144aa565b915061473c828a61436c565b9150614748828961436c565b9150614753826144f6565b915061475e82614542565b915061476a828861436c565b91506147758261458e565b9150614781828761436c565b915061478c826145da565b9150614798828661436c565b91506147a4828561436c565b91506147af82614626565b91506147bb828461436c565b91506147c682614672565b91506147d1826146be565b91508190509a9950505050505050505050565b7f646174613a6170706c69636174696f6e2f6a736f6e3b6261736536342c000000600082015250565b600061481a601d83614315565b9150614825826147e4565b601d82019050919050565b600061483b8261480d565b9150614847828461436c565b915081905092915050565b7f4e487b7100000000000000000000000000000000000000000000000000000000600052601260045260246000fd5b60006040820190506148966000830185612ff5565b6148a3602083018461310b565b9392505050565b60006148b582612e6e565b91506148c083612e6e565b92508282026148ce81612e6e565b915082820484148315176148e5576148e461398d565b5b5092915050565b60006148f782612e6e565b915061490283612e6e565b92508261491257614911614852565b5b82820490509291505056fe4142434445464748494a4b4c4d4e4f505152535455565758595a6162636465666768696a6b6c6d6e6f707172737475767778797a303132333435363738392b2fa26469706673582212206a8019730f8f63a3b29eb5e73396319874fb9ccb2f298f60ebebb9a4ac46dd9864736f6c634300081c0033",
  "linkReferences": {},
  "deployedLinkReferences": {}
}